:100000000A128A111228FF3FFE00030EF1000408B5
:10001000F2000A08F300831203137F08F4000A12A7
:100020008A116E2B0A128A1115288313D030FD0015
:100030000530FE00C630FF00A03084000A128A118D
:100040001E260A128A114430FD000530FE00F630EB
:10005000FF00203084000A128A111E260A128A111B
:100060004430840056300A128A113F260A128A113F
:10007000F701F80183010A128A113E281030831615
:10008000031788008901203083160313850083122B
:1000900003138501FF30831603138600FF308700AA
:1000A000831203138701831603138801831203133A
:1000B0008801F83083160313890083120313890122
:1000C00064308316031392000C30831203139D00D7
:1000D0009B0106309200B83083160313870024304A
:1000E000980090308312031398008316031787013A
:1000F00019308316031399009F0193308312031361
:100100009F00C03083160313810004308312031351
:10011000E5000030E6000130E3000030E400CC01EF
:10012000CD01CA01CB01C401C501D401D501F7013C
:10013000F801D201D301D001D101CE01CF01C80114
:10014000C901C601C7010130E7000030E8008B1685
:100150000B178B17871AAD28AE28332A8316031383
:10016000D401D5018312031307156430F500003064
:10017000F6000A128A112D260A128A11831203131D
:1001800007116430F5000030F6000A128A112D269E
:100190000A128A11013083160313D4070318D50AF3
:1001A0000030D5075508803AFF0080307F02031DDC
:1001B000DB280A305402031CDE28DF28B22883160D
:1001C0000313D001D10183160313D401D5010A30E2
:1001D00083120313D6000030D7000A128A11692552
:1001E0000A128A111430F5000030F6000A128A1142
:1001F0002D260A128A11013083160313D40703181F
:10020000D50A0030D5075508803AFF0080307F02BC
:10021000031D0C290A305402031C0F291029E7285A
:1002200083160313D401D501F63083120313D600CD
:10023000FF30D7000A128A1169250A128A11143078
:10024000F5000030F6000A128A112D260A128A11D2
:10025000013083160313D4070318D50A0030D507DD
:100260005508803AFF0080307F02031D39290A308B
:100270005402031C3C293D29142901308316031321
:10028000D0070318D10A0030D1075108803AFF0087
:1002900080307F02031D4E2907305002031C512974
:1002A0005229E32883160313D401D50183120313C3
:1002B00007146430F5000030F6000A128A112D266A
:1002C0000A128A118312031307106430F5000030FC
:1002D000F6000A128A112D260A128A11013083169D
:1002E0000313D4070318D50A0030D5075508803A00
:1002F000FF0080307F02031D7F290A305402031C57
:10030000822983295629FF3083120313D20000303B
:10031000D300DC30F5000530F6000A128A112D26D4
:100320000A128A1183120313D201D301FF30D000C5
:100330000030D100DC30F5000530F6000A128A11D9
:100340002D260A128A1183120313D001D101FF3026
:10035000CE000030CF00DC30F5000530F6000A1288
:100360008A112D260A128A1183120313CE01CF019E
:100370000130E7000030E800F430C8000130C90067
:10038000831203134908803AFF0080307F02031D67
:10039000CB29013048020318CE29CF29C0290230C9
:1003A00083120313E7000030E800F430C800013086
:1003B000C900831203134908803AFF0080307F028E
:1003C000031DE429013048020318E729E829D92947
:1003D000043083120313E7000030E800F430C80053
:1003E0000130C900831203134908803AFF008030AE
:1003F0007F02031DFD29013048020318002A012A4B
:10040000F229073083120313E7000030E800F430CC
:10041000C8000130C900831203134908803AFF0065
:1004200080307F02031D162A013048020318192A62
:100430001A2A0B2A0A3083120313E7000030E8005F
:10044000F430C8000130C900831203134908803A10
:10045000FF0080307F02031D2F2A0130480203185D
:10046000322A332A242A831203139F18382A392A5E
:10047000532A4A084B04031D3E2A3F2A532A1E08CA
:10048000E100E2016108F5006208F6000A128A1133
:1004900002250A128A1183120313D217F430CA00FC
:1004A0000130CB009F148C1E562A572A742A1A0832
:1004B000E100E2016108F5006208F6000A128A1103
:1004C00002250A128A11B83083120313CA000B30B6
:1004D000CB00D217D017CE170230E7000030E8006B
:1004E0006430C8000030C9004C084D04031D792A4F
:1004F0007A2A332A0608E100E20161088316031311
:10050000D60083120313620883160313D7003F300B
:10051000560583120313E1000030831603135705B9
:1005200083120313E200610862040319982A992ACE
:10053000332AF430CC000130CD00B830CA000B3083
:10054000CB002C2B83160313561CA72AA82AAC2AEF
:100550000130D2000030D300D61CAF2AB02AB42A12
:100560000430D2000030D300561DB72AB82ABC2A66
:100570000730D2000030D300D61DBF2AC02A3F2B3F
:100580000E30D2000030D3003F2B83160313561CCD
:10059000CA2ACB2ACF2A0230D2000030D300D61C80
:1005A000D22AD32AD72A0530D2000030D300561DD4
:1005B000DA2ADB2ADF2A0830D2000030D300D61D29
:1005C000E22AE32A3F2BD201D3013F2B83160313E8
:1005D000561CEB2AEC2AF02A0330D2000030D3005C
:1005E000D61CF32AF42AF82A0630D2000030D300B1
:1005F000561DFB2AFC2A002B0930D2000030D30004
:10060000D61D032B042B3F2B0F30D2000030D3001C
:100610003F2B83160313561C0E2B0F2B132B0A3064
:10062000D2000030D300D61C162B172B1B2B0B30FF
:10063000D2000030D300561D1E2B1F2B232B0C3055
:10064000D2000030D300D61D262B272B3F2B0D3098
:10065000D2000030D3003F2B6408003A0319312B3D
:100660003F2B6308013A0319A22A033A0319C52A4A
:10067000063A0319E62A0C3A0319092B3F2B831279
:10068000861E432B442B4A2B113083160313D200B2
:100690000030D3008312061E4E2B4F2B552B1030EB
:1006A00083160313D2000030D300831603135308BC
:1006B00083120313DD0083160313520883120313FE
:1006C000DC000430DE000030DF000A128A116424EE
:1006D0000A128A11332A0A128A1112280B1F712B4F
:1006E000722B592C0B1D752B762B592C0B110130AD
:1006F000D4070318D50A0030D5074D08803AFF000B
:1007000080307F02031D862B01304C02031C892B95
:100710008A2B922BFF3083120313CC070318CD0AC8
:10072000FF30CD07831203134B08803AFF0080305F
:100730007F02031D9D2B01304A02031CA02BA12B1D
:10074000A92BFF3083120313CA070318CB0AFF300B
:10075000CB077808803AFF0080307F02031DB22B60
:1007600001307702031CB52BB62BBC2BFF30F707EB
:100770000318F80AFF30F807831203134908803A78
:10078000FF0080307F02031DC72B01304802031C8D
:10079000CA2BCB2BF72BFF3083120313C807031888
:1007A000C90AFF30C9070130C6070318C70A00305D
:1007B000C7074708803AF0006808803A7002031DB6
:1007C000E32B67084602031CE62BE72BFA2B831268
:1007D0000313C601C701050E0139F0000130F00610
:1007E000F00E05087006EF3970068500FA2B8312AB
:1007F00003130512F030F00070088312031385050F
:10080000192C0230E3000030E40085142C2C043055
:10081000E3000030E40005152C2C0830E300003024
:10082000E40085152C2C0130E3000030E4000514B1
:100830002C2C6408003A03191E2C2C2C6308013A56
:100840000319012C033A0319072C063A03190D2C3E
:100850000C3A0319132C2C2C8801492C04308900E4
:10086000520888000430E5000030E600592C0230C0
:100870008900500888000230E5000030E600592C5D
:10088000013089004E0888000130E5000030E600A4
:10089000592C6608003A03194E2C592C6508013A68
:1008A00003192E2C033A0319402C063A0319372C4E
:1008B000592C7408FF0073088A0072088400710EB6
:1008C0008300FE0E7E0E0900831203135C0899005C
:1008D0005D08803AFF0080307F02031D712C0E30CE
:1008E0005C020318742C752C972C83120313440399
:1008F0004504031D7C2C7D2C812CD001D101D2011B
:10090000D301C401C5015108CF005008CE005308DF
:10091000D1005208D0005C08E0006007A03E8400CF
:1009200083130008D200840A0008D300F72C01309A
:1009300083120313C4000030C500E42C3F08CF002D
:100940003E08CE004108D1004008D0004308D30043
:100950004208D200F72C3908CF003808CE003B08F7
:10096000D1003A08D0003D08D3003C08D200F72C53
:100970003308CF003208CE003508D1003408D0004B
:100980003708D3003608D2000A30D6000030D7002E
:100990000A128A1169250A128A11F72C2D08CF0034
:1009A0002C08CE002F08D1002E08D0003108D3002B
:1009B0003008D200F630D600FF30D7000A128A1174
:1009C00069250A128A11F72C5D08003A0319E92CEF
:1009D000F72C5C080E3A03199E2C013A0319AB2C34
:1009E0001F3A0319B82C013A0319CE2CF72C8312A5
:1009F00003135F08E8005E08E7006430C8000030B9
:100A0000C900080083120313D701D801152D9C30AB
:100A1000F5070318F60AFF30F607013083120313B7
:100A2000D7070318D80A0030D8077608803AFF00A5
:100A300080307F02031D1E2D643075020318212DA6
:100A4000222D072D831203135708D6005607A03E08
:100A5000840083130008CE00840A0008CF00D70169
:100A6000D801402DF630F5070318F60AFF30F607D7
:100A7000013083120313D7070318D80A0030D807B0
:100A80007608803AFF0080307F02031D492D0A302E
:100A9000750203184C2D4D2D322D83120313570868
:100AA000D6005607A03E840083130008D000840AB5
:100AB0000008D1007508D6005607A03E8400000843
:100AC000D200840A0008D3000130C4000030C50001
:100AD0000800831203131B08D800D9015808DA0054
:100AE0005908DB005708803AFF0080307F02031D61
:100AF0007B2D01305602031C7E2D7F2DB02D8312DD
:100B0000031356085A07D80057080318570A5B07FB
:100B1000D9005908803AFF0081307F02031D922DD1
:100B200000305802031C952D962DA02DFF30F500A6
:100B30000030F6000A128A1147260A128A11C52DC2
:100B40008312031356085A07F50057080318570A6B
:100B50005B07F6000A128A1147260A128A11C52D70
:100B60008312031356085A075B0803185B0A5707DA
:100B7000D800D81FBC2DBD2DA02D0030F500F600EB
:100B80000A128A1147260A128A1108003F340034DB
:100B9000063400345B3400344F340034663400349F
:100BA0006D3400347D340034073400347F34003435
:100BB0006F340034773400347C34003439340034FA
:100BC0005E3400343F340034063400345B34003487
:100BD0004F340034663400346D3400347D340034D6
:100BE000073400347F3400346F34003477340034F9
:100BF0007C340034393400345E34003479340034C9
:100C000071340034603400341C3400344234003415
:100C10005034003423340034443400347934003404
:100C20006D340034393400347934003454340034B1
:100C3000783400347E088A007F0882000A128A1104
:100C40001A260A128A118000840A04087D060319F4
:100C50000034FF0A0319FE0A1E2E7608F8007508F4
:100C6000F7007808803AFF0080307F02031D3A2E9B
:100C70000130770203183D2E3E2E312E080064000D
:100C80008001840A0406031900340406402E750806
:100C9000831203139B000800FF3FFF3FFF3FFF3F0E
:04400E00F420FF3F5C
:00000001FF
