:020000040000FA
:060000000A128A11EE2F26
:100D46007E088A007F0882000A128A11A3260A12E8
:100D56008A118000840A04087D0603190034FF0AFC
:100D66000319FE0AA72E063400345B3400344F34D0
:100D7600003477340034663400346D3400347D3406
:100D860000347C340034073400347F3400346F344C
:100D9600003439340034793400343F34003471344B
:100DA60000345E34003483160317880189018316E4
:100DB6000313880189010F3085008601FC01FD01BE
:100DC6007D08F1007C08F0000A128A1108270A1231
:100DD6008A110130FC070318FD0A0030FD077D0863
:100DE600803AFF0080307F02031DFB2E10307C020C
:100DF600031CFE2EFF2EE32E0A128A115C270A120E
:100E06008A11FF2E0A128A110028F401F5018312B5
:100E1600031309147008F2007207203E840083133E
:100E2600000888000730F3007D30F200F20B192F1E
:100E3600F30B192F83120313091089147008F2009B
:100E46007207203E84008313000888000730F300F1
:100E56007D30F200F20B2D2FF30B2D2F831203138F
:100E6600891009157008F2007207203E840083136A
:100E7600000888000730F3007D30F200F20B412FA6
:100E8600F30B412F8312031309110130F4070318E2
:100E9600F50A0030F5077508803AFF0080307F02BA
:100EA600031D572F28307402031C5A2F5B2F0A2F5D
:100EB6000800F801F9017908803AFF0080307F02C6
:100EC600031D672F04307802031C6A2F6B2F6C2FCB
:100ED600ED2F0130F600780A722F0310F60DFF3E53
:100EE600031D702F7608FF3A831203138600FA015A
:100EF600FB010130F6007A0A822F0310F60DFF3E41
:100F0600031D802F7608831203130505031D8C2FFE
:100F16008D2FCF2F8230F700DD30F600F60B912FA4
:100F2600F70B912F962F0130F6007A0A9C2F0310AB
:100F3600F60DFF3E031D9A2F76088312031305054F
:100F4600031DA62FA72FCF2F7908F7007808F600E4
:100F56000310F60DF70D0310F60DF70D7A08760758
:100F6600F0007B0803187B0A7707F1000A128A1142
:100F760008270A128A110130F6007A0AC42F0310D4
:100F8600F60DFF3E031DC22F7608831203130505D7
:100F96000319CE2FCF2FBE2F0130FA070318FB0AF5
:100FA6000030FB077B08803AFF0080307F02031D7C
:100FB600DE2F04307A02031CE12FE22F7C2F0F3044
:100FC6008312031386000130F8070318F90A00306C
:100FD600F9075E2F080083134030FD000630FE003F
:100FE600B630FF00203084000A128A11A7260A12A2
:0A0FF6008A1183010A128A11D62E17
:00000001FF
