:020000040000FA
:060000000A128A11EE2F26
:100E860083160313880189010A128A1185270A121B
:100E96008A11472F0A128A1100287E088A007F08C5
:100EA60082000A128A1150270A128A118000840AC7
:100EB60004087D0603190034FF0A0319FE0A542F9D
:100EC6003F340034063400345B3400344F3400348D
:100ED600663400346D3400347D3400340734003415
:100EE6007F3400346F340034773400347C3400347B
:100EF600393400345E3400347934003471340034CB
:100F060080340034F401F501F201F3018312031376
:100F160009147408F0007007203E8400831300084B
:100F260088000730F1007D30F000F00B982FF10BB0
:100F3600982F83120313091089147408F0007007A0
:100F4600203E84008313000888000730F1007D30BE
:100F5600F000F00BAC2FF10BAC2F831203138910AA
:100F660009157408F0007007203E840083130008FA
:100F760088000730F1007D30F000F00BC02FF10B38
:100F8600C02F8312031309110130F2070318F30A65
:100F96000030F3077308803AFF0080307F02031D9C
:100FA600D62F32307202031CD92FDA2F892F013047
:100FB600F4070318F50A0030F5077508803AFF00B4
:100FC60080307F02031DE92F12307402031CEC2FC0
:100FD600ED2F872F080083134230FD000730FE00F7
:100FE6006330FF00203084000A128A1154270A1247
:0A0FF6008A1183010A128A11432FA9
:00000001FF
